:0400000054EF0AF0BF
:101000000001000A006400E80310272564206D56E3
:101010000000000E4B6E000E4A6E000E496E440E2C
:10102000486E9ED05350250AD8B40BD040C0D9FF8B
:1010300041C0DAFF53C0DFFF404A412A4A4A4B2AE7
:101040008FD0000E4C6E42C0F6FF43C0F7FF424AFD
:10105000432A0800F5CF53F05350000AD8B48BD080
:10106000640AD8B403D00D0AD8A47AD048C0D9FFF6
:1010700049C0DAFFDECF4EF0DDCF4FF0020E48263A
:10108000000E49224F50800AF36E800EF35C000E72
:10109000D8B44E5CD8B006D0030E4C124E6C4F1E26
:1010A000D8B04F2A010E536E5350050AD8B416D04B
:1010B0005350020D010EF324F66E100EF420F76E5D
:1010C0000900F5CF46F00900F5CF47F046504E5CD9
:1010D00047504F58D8A002D0532AE6D74CC046F00C
:1010E000030E4616D8B40AD040C0D9FF41C0DAFF7B
:1010F0002D0EDF6E404A412A4A4A4B2A53C04DF01A
:101100002BD04D50020D010EF324F66E100EF4207C
:10111000F76E0900F5CF36F00A00F5CF37F04EC074
:1011200034F04FC035F00AEC0AF034C03BF035C063
:101130003CF0000E3E6E0A0E3D6E33EC0AF03B5062
:10114000300F536E40C0D9FF41C0DAFF53C0DFFFFC
:10115000404A412A4A4A4B2A4D064D28D8A4D1D7A5
:1011600042C0F6FF43C0F7FF424A432A0800F5CFCA
:1011700053F0536657D740C0D9FF41C0DAFF000E85
:10118000DF6E4AC040F04BC041F012006FEC0AF035
:10119000C20E3B6E000E3A6E53EC09F0C80E92EC94
:1011A0000AF0C80E92EC0AF0C80E92EC0AF0C80ED3
:1011B00092EC0AF0000E5E6E0DD0ACA20BD05E5029
:1011C000010D5F0EF324D96E000EF420DA6EDF50AD
:1011D000AD6E5E2A120E5E64F0D7C80E92EC0AF075
:1011E000BE0E92EC0AF0BE0E92EC0AF0BE0E92EC2D
:1011F0000AF0BE0E92EC0AF0000E5D6E000E5C6E00
:101200009EAA03D083EC0AF0596E9EAA03D083EC09
:101210000AF0596EB10EAD6E9EAAFED783EC0AF0AD
:10122000596E9EAAFED783EC0AF0586EB70EAD6ECB
:101230005850556E546A59505424566E000E55201D
:10124000576E000E416E020E406E100E436E0B0E76
:10125000426E56C044F057C045F009EC08F040C05B
:101260005AF041C05BF0ACA2FED7B80EAD6EACA296
:10127000FED75AC0ADFF0CD0ACA20AD0020E5C243F
:10128000D96E000E5D20DA6EDF50AD6E5C4A5D2ACD
:101290005D50800A546E5A505C5C5B50800A545812
:1012A000D8A0EAD7FFD7828C949C948E25D0030EC9
:1012B0003F6E400E1FD0010E3F6E9F0E1BD0000EE2
:1012C0003F6E670E17D0000E3F6E330E13D0000E28
:1012D0003F6E210E0FD0000E3F6E100E0BD0000E91
:1012E0003F6E030E07D0000E3F6E010E03D0000EBE
:1012F0003F6ECF0E3E6E46D03AC03CF03BC03DF054
:101300003D50090AD8B416D01B0AD8B418D0500AD8
:10131000D8B41AD0090AD8B41CD0DD0AD8B41ED06B
:10132000370AD8B420D0630AD8B422D0230AD8B45C
:1013300024D0DDD73C50600AD8B4B9D7D8D73C50B8
:10134000C00AD8B4B8D7D3D73C50400AD8B4CBD70A
:10135000CED73C50000AD8B4B2D7C9D73C50000A07
:10136000D8B4B1D7C4D73C50200AD8B4B8D7BFD767
:101370003C50000AD8B4AFD7BAD73C50000AD8B412
:10138000A6D7B5D73EC034F03FC035F03C0ED6EC02
:1013900009F03B50090A600ED8B43A18D8A402D01C
:1013A000B886AC94010E92EC0AF01200396E000E71
:1013B000AC6E000EAB6E39B0AC8839A202D0AC8CEA
:1013C000AB8C39B4AC8E39A602D0AB8801D0AB8AD5
:1013D00039B8AC849E9839BAAB8639AC02D09D8AB4
:1013E00001D09D9A9E9A39AE02D09D8801D09D98D9
:1013F00034C0AFFF35C036F036C037F0386A3750EA
:10140000B06EAC8AAB8E949C948EACB8ACBE01D05E
:10141000948C1200000E396E000E386E3750361064
:10142000D8B41CD0010E3A6E04D0D8903636373678
:101430003A2A37AEFAD7D890383639363650345C37
:1014400037503558D8A005D03650345E3750355A0D
:101450003880D890373236323A2EEDD738C034F053
:1014600039C035F012003E503D10D8B418D0010EEE
:101470003F6E04D0D8903D363E363F2A3EAEFAD776
:101480003D503B5C3E503C58D8A004D03D503B5EA4
:101490003E503C5AD8903E323D323F2EF1D73BC0B1
:1014A0003BF03CC03CF0120000EE01F0330EEE6A5F
:1014B000E806FDE13A0EF66E150EF76E000EF86EB8
:1014C00000EE5FF010EE14F00900F5CFEEFFE550EE
:1014D000E150FAE1000EF86E0001C6EF08F0D38C7F
:1014E000D38AD3889B8C000E356E000E346E355037
:1014F000800A7F0FF40ED8B4345CD8B003D0344ADD
:10150000352AF5D71200F20E0116ABAC03D00190CC
:10151000ABB00180ABB40184ABB20186AECF34F086
:1015200034501200356E0D0E346EFC0EE82EFED7D0
:10153000342EFCD7352EF7D71200B7B8034B5055D1
:0E154000B90001B80841505343313239390027
:020000040020DA
:08000000FFFFFFFFFFFFFFFF00
:020000040030CA
:0E000000FF091F1EFF0181FF0FC00FE00F4020
:00000001FF
