:04000000F3EF7EF0AC
:10FD9400B7B8034B5055B90001B80841505343312B
:10FDA40032393900166E0D0E156EFC0EE82EFED794
:10FDB400152EFCD7162EF7D71200D38CD38AD388EE
:10FDC4009B8C000E166E000E156E1650800A7F0F67
:10FDD400F40ED8B4155CD8B003D0154A162AF5D75A
:10FDE4001200940EF66EFD0EF76E000EF86E00EE25
:10FDF40001F010EE14F00900F5CFEEFFE550E150EC
:10FE0400FAE1000EF86E00013CEF7FF01A6E000E6E
:10FE1400AC6E000EAB6E1AB0AC881AA202D0AC8CD9
:10FE2400AB8C1AB4AC8E1AA602D0AB8801D0AB8AC4
:10FE34001AB8AC849E981ABAAB861AAC02D09D8AC2
:10FE440001D09D9A9E9A1AAE02D09D8801D09D98A9
:10FE540015C0AFFF16C017F017C018F0196A185074
:10FE6400B06EAC8AAB8E949C948EACB8ACBE01D010
:10FE7400948C1200DFEC7EF0C20E1C6E000E1B6E22
:10FE84007DEC7FF0C80ED4EC7EF0C80ED4EC7EF08E
:10FE9400C80ED4EC7EF0C80ED4EC7EF0BE0ED4ECCA
:10FEA4007EF0BE0ED4EC7EF0C80ED4EC7EF0C80E0C
:10FEB400D4EC7EF0C80ED4EC7EF0BE0ED4EC7EF012
:10FEC400BE0ED4EC7EF0000E236E000E226E000EE9
:10FED400216E0DD0ACA20BD02350010D010EF324E2
:10FEE400D96E000EF420DA6EDF50AD6E232A120EA6
:10FEF4002364F0D7FFD7828C949C948E25D0030E74
:10FF0400206E400E1FD0010E206E9F0E1BD0000EDF
:10FF1400206E670E17D0000E206E330E13D0000E25
:10FF2400206E210E0FD0000E206E100E0BD0000E8E
:10FF3400206E030E07D0000E206E010E03D0000EBB
:10FF4400206ECF0E1F6E46D01BC01DF01CC01EF0CD
:10FF54001E50090AD8B416D01B0AD8B418D0500AB7
:10FF6400D8B41AD0090AD8B41CD0DD0AD8B41ED02B
:10FF7400370AD8B420D0630AD8B422D0230AD8B41C
:10FF840024D0DDD71D50600AD8B4B9D7D8D71D50B6
:10FF9400C00AD8B4B8D7D3D71D50400AD8B4CBD7E9
:10FFA400CED71D50000AD8B4B2D7C9D71D50000A05
:10FFB400D8B4B1D7C4D71D50200AD8B4B8D7BFD746
:10FFC4001D50000AD8B4AFD7BAD71D50000AD8B410
:10FFD400A6D7B5D71FC015F020C016F03C0E08EC0C
:10FFE4007FF01C50090A600ED8B41B18D8A402D0A4
:0CFFF400B886AC94010ED4EC7EF0120034
:020000040020DA
:08000000FFFFFFFFFFFFFFFF00
:020000040030CA
:0E000000FF091F1EFF0181FF0FC00FE00F4020
:00000001FF
